{
  "contractName": "FederatedLearning",
  "abi": [
    {
      "anonymous": false,
      "inputs": [
        {
          "indexed": false,
          "internalType": "address",
          "name": "submitter",
          "type": "address"
        },
        {
          "indexed": false,
          "internalType": "string",
          "name": "ipfsHash",
          "type": "string"
        }
      ],
      "name": "UpdateSubmitted",
      "type": "event"
    },
    {
      "anonymous": false,
      "inputs": [
        {
          "indexed": false,
          "internalType": "address",
          "name": "validator",
          "type": "address"
        },
        {
          "indexed": false,
          "internalType": "uint256",
          "name": "updateIndex",
          "type": "uint256"
        }
      ],
      "name": "UpdateValidated",
      "type": "event"
    },
    {
      "inputs": [
        {
          "internalType": "uint256",
          "name": "",
          "type": "uint256"
        }
      ],
      "name": "modelUpdates",
      "outputs": [
        {
          "internalType": "address",
          "name": "submitter",
          "type": "address"
        },
        {
          "internalType": "string",
          "name": "ipfsHash",
          "type": "string"
        },
        {
          "internalType": "uint256",
          "name": "timestamp",
          "type": "uint256"
        },
        {
          "internalType": "bool",
          "name": "isValidated",
          "type": "bool"
        }
      ],
      "stateMutability": "view",
      "type": "function",
      "constant": true
    },
    {
      "inputs": [
        {
          "internalType": "address",
          "name": "",
          "type": "address"
        }
      ],
      "name": "validatorTrustScores",
      "outputs": [
        {
          "internalType": "uint256",
          "name": "",
          "type": "uint256"
        }
      ],
      "stateMutability": "view",
      "type": "function",
      "constant": true
    },
    {
      "inputs": [
        {
          "internalType": "string",
          "name": "_ipfsHash",
          "type": "string"
        }
      ],
      "name": "submitUpdate",
      "outputs": [],
      "stateMutability": "nonpayable",
      "type": "function"
    },
    {
      "inputs": [
        {
          "internalType": "uint256",
          "name": "_updateIndex",
          "type": "uint256"
        }
      ],
      "name": "validateUpdate",
      "outputs": [],
      "stateMutability": "nonpayable",
      "type": "function"
    },
    {
      "inputs": [
        {
          "internalType": "address",
          "name": "_validator",
          "type": "address"
        }
      ],
      "name": "getTrustScore",
      "outputs": [
        {
          "internalType": "uint256",
          "name": "",
          "type": "uint256"
        }
      ],
      "stateMutability": "view",
      "type": "function",
      "constant": true
    }
  ],
  "bytecode": "0x608060405234801561000f575f80fd5b50610d598061001d5f395ff3fe608060405234801561000f575f80fd5b5060043610610055575f3560e01c80631e1b890b146100595780635e09eea114610075578063d67aa984146100a5578063f08e92f5146100d5578063fad8701d146100f1575b5f80fd5b610073600480360381019061006e919061054c565b610124565b005b61008f600480360381019061008a91906105d1565b6102a1565b60405161009c919061060b565b60405180910390f35b6100bf60048036038101906100ba91906105d1565b6102e7565b6040516100cc919061060b565b60405180910390f35b6100ef60048036038101906100ea9190610760565b6102fc565b005b61010b6004803603810190610106919061054c565b61041d565b60405161011b949392919061084a565b60405180910390f35b5f80549050811061016a576040517f08c379a0000000000000000000000000000000000000000000000000000000008152600401610161906108de565b60405180910390fd5b5f818154811061017d5761017c6108fc565b5b905f5260205f2090600402016003015f9054906101000a900460ff16156101d9576040517f08c379a00000000000000000000000000000000000000000000000000000000081526004016101d090610973565b60405180910390fd5b60015f82815481106101ee576101ed6108fc565b5b905f5260205f2090600402016003015f6101000a81548160ff02191690831515021790555060015f3373ffffffffffffffffffffffffffffffffffffffff1673ffffffffffffffffffffffffffffffffffffffff1681526020019081526020015f205f815480929190610260906109be565b91905055507f464eda14c1c84cc8cbace9a3ccdf7a7537a79ce820965c15ffd4dcf7397e21373382604051610296929190610a05565b60405180910390a150565b5f60015f8373ffffffffffffffffffffffffffffffffffffffff1673ffffffffffffffffffffffffffffffffffffffff1681526020019081526020015f20549050919050565b6001602052805f5260405f205f915090505481565b5f60405180608001604052803373ffffffffffffffffffffffffffffffffffffffff1681526020018381526020014281526020015f1515815250908060018154018082558091505060019003905f5260205f2090600402015f909190919091505f820151815f015f6101000a81548173ffffffffffffffffffffffffffffffffffffffff021916908373ffffffffffffffffffffffffffffffffffffffff16021790555060208201518160010190816103b59190610c26565b50604082015181600201556060820151816003015f6101000a81548160ff02191690831515021790555050507ffcefac84b43d33589d788c1de6594ba75e41d67cd6890c6082db19c53cae6b973382604051610412929190610cf5565b60405180910390a150565b5f818154811061042b575f80fd5b905f5260205f2090600402015f91509050805f015f9054906101000a900473ffffffffffffffffffffffffffffffffffffffff169080600101805461046f90610a59565b80601f016020809104026020016040519081016040528092919081815260200182805461049b90610a59565b80156104e65780601f106104bd576101008083540402835291602001916104e6565b820191905f5260205f20905b8154815290600101906020018083116104c957829003601f168201915b505050505090806002015490806003015f9054906101000a900460ff16905084565b5f604051905090565b5f80fd5b5f80fd5b5f819050919050565b61052b81610519565b8114610535575f80fd5b50565b5f8135905061054681610522565b92915050565b5f6020828403121561056157610560610511565b5b5f61056e84828501610538565b91505092915050565b5f73ffffffffffffffffffffffffffffffffffffffff82169050919050565b5f6105a082610577565b9050919050565b6105b081610596565b81146105ba575f80fd5b50565b5f813590506105cb816105a7565b92915050565b5f602082840312156105e6576105e5610511565b5b5f6105f3848285016105bd565b91505092915050565b61060581610519565b82525050565b5f60208201905061061e5f8301846105fc565b92915050565b5f80fd5b5f80fd5b5f601f19601f8301169050919050565b7f4e487b71000000000000000000000000000000000000000000000000000000005f52604160045260245ffd5b6106728261062c565b810181811067ffffffffffffffff821117156106915761069061063c565b5b80604052505050565b5f6106a3610508565b90506106af8282610669565b919050565b5f67ffffffffffffffff8211156106ce576106cd61063c565b5b6106d78261062c565b9050602081019050919050565b828183375f83830152505050565b5f6107046106ff846106b4565b61069a565b9050828152602081018484840111156107205761071f610628565b5b61072b8482856106e4565b509392505050565b5f82601f83011261074757610746610624565b5b81356107578482602086016106f2565b91505092915050565b5f6020828403121561077557610774610511565b5b5f82013567ffffffffffffffff81111561079257610791610515565b5b61079e84828501610733565b91505092915050565b6107b081610596565b82525050565b5f81519050919050565b5f82825260208201905092915050565b5f5b838110156107ed5780820151818401526020810190506107d2565b5f8484015250505050565b5f610802826107b6565b61080c81856107c0565b935061081c8185602086016107d0565b6108258161062c565b840191505092915050565b5f8115159050919050565b61084481610830565b82525050565b5f60808201905061085d5f8301876107a7565b818103602083015261086f81866107f8565b905061087e60408301856105fc565b61088b606083018461083b565b95945050505050565b7f496e76616c69642075706461746520696e6465780000000000000000000000005f82015250565b5f6108c86014836107c0565b91506108d382610894565b602082019050919050565b5f6020820190508181035f8301526108f5816108bc565b9050919050565b7f4e487b71000000000000000000000000000000000000000000000000000000005f52603260045260245ffd5b7f55706461746520616c72656164792076616c69646174656400000000000000005f82015250565b5f61095d6018836107c0565b915061096882610929565b602082019050919050565b5f6020820190508181035f83015261098a81610951565b9050919050565b7f4e487b71000000000000000000000000000000000000000000000000000000005f52601160045260245ffd5b5f6109c882610519565b91507fffffffffffffffffffffffffffffffffffffffffffffffffffffffffffffffff82036109fa576109f9610991565b5b600182019050919050565b5f604082019050610a185f8301856107a7565b610a2560208301846105fc565b9392505050565b7f4e487b71000000000000000000000000000000000000000000000000000000005f52602260045260245ffd5b5f6002820490506001821680610a7057607f821691505b602082108103610a8357610a82610a2c565b5b50919050565b5f819050815f5260205f209050919050565b5f6020601f8301049050919050565b5f82821b905092915050565b5f60088302610ae57fffffffffffffffffffffffffffffffffffffffffffffffffffffffffffffffff82610aaa565b610aef8683610aaa565b95508019841693508086168417925050509392505050565b5f819050919050565b5f610b2a610b25610b2084610519565b610b07565b610519565b9050919050565b5f819050919050565b610b4383610b10565b610b57610b4f82610b31565b848454610ab6565b825550505050565b5f90565b610b6b610b5f565b610b76818484610b3a565b505050565b5b81811015610b9957610b8e5f82610b63565b600181019050610b7c565b5050565b601f821115610bde57610baf81610a89565b610bb884610a9b565b81016020851015610bc7578190505b610bdb610bd385610a9b565b830182610b7b565b50505b505050565b5f82821c905092915050565b5f610bfe5f1984600802610be3565b1980831691505092915050565b5f610c168383610bef565b9150826002028217905092915050565b610c2f826107b6565b67ffffffffffffffff811115610c4857610c4761063c565b5b610c528254610a59565b610c5d828285610b9d565b5f60209050601f831160018114610c8e575f8415610c7c578287015190505b610c868582610c0b565b865550610ced565b601f198416610c9c86610a89565b5f5b82811015610cc357848901518255600182019150602085019450602081019050610c9e565b86831015610ce05784890151610cdc601f891682610bef565b8355505b6001600288020188555050505b505050505050565b5f604082019050610d085f8301856107a7565b8181036020830152610d1a81846107f8565b9050939250505056fea2646970667358221220408ead6536bb5c347b814e480ded92400ded30014d09e7f2a5665a7342850a4f64736f6c63430008150033",
  "immutableReferences": {},
  "source": "// SPDX-License-Identifier: MIT\r\npragma solidity ^0.8.0;\r\n\r\ncontract FederatedLearning {\r\n    struct ModelUpdate {\r\n        address submitter;\r\n        string ipfsHash;\r\n        uint256 timestamp;\r\n        bool isValidated;\r\n    }\r\n\r\n    ModelUpdate[] public modelUpdates;\r\n    mapping(address => uint256) public validatorTrustScores;\r\n\r\n    event UpdateSubmitted(address submitter, string ipfsHash);\r\n    event UpdateValidated(address validator, uint256 updateIndex);\r\n\r\n    function submitUpdate(string memory _ipfsHash) public {\r\n        modelUpdates.push(ModelUpdate({\r\n            submitter: msg.sender,\r\n            ipfsHash: _ipfsHash,\r\n            timestamp: block.timestamp,\r\n            isValidated: false\r\n        }));\r\n        emit UpdateSubmitted(msg.sender, _ipfsHash);\r\n    }\r\n\r\n    function validateUpdate(uint256 _updateIndex) public {\r\n        require(_updateIndex < modelUpdates.length, \"Invalid update index\");\r\n        require(!modelUpdates[_updateIndex].isValidated, \"Update already validated\");\r\n        \r\n        modelUpdates[_updateIndex].isValidated = true;\r\n        validatorTrustScores[msg.sender]++;\r\n        \r\n        emit UpdateValidated(msg.sender, _updateIndex);\r\n    }\r\n\r\n    function getTrustScore(address _validator) public view returns (uint256) {\r\n        return validatorTrustScores[_validator];\r\n    }\r\n}\r\n",
  "sourcePath": "/home/raven/code/Blockchain/blockchain-project/contracts/Blockchain Implementation.sol",
  "compiler": {
    "name": "solc",
    "version": "0.8.21+commit.d9974bed.Emscripten.clang"
  },
  "schemaVersion": "3.4.16",
  "updatedAt": "2024-10-09T00:12:00.568Z",
  "networkType": "ethereum",
  "devdoc": {
    "kind": "dev",
    "methods": {},
    "version": 1
  },
  "userdoc": {
    "kind": "user",
    "methods": {},
    "version": 1
  }
}