{
  "contractName": "FederatedLearning2",
  "abi": [
    {
      "anonymous": false,
      "inputs": [
        {
          "indexed": false,
          "internalType": "uint256",
          "name": "round",
          "type": "uint256"
        }
      ],
      "name": "RoundCompleted",
      "type": "event"
    },
    {
      "anonymous": false,
      "inputs": [
        {
          "indexed": false,
          "internalType": "address",
          "name": "submitter",
          "type": "address"
        },
        {
          "indexed": false,
          "internalType": "string",
          "name": "ipfsHash",
          "type": "string"
        },
        {
          "indexed": false,
          "internalType": "uint256",
          "name": "round",
          "type": "uint256"
        }
      ],
      "name": "UpdateSubmitted",
      "type": "event"
    },
    {
      "anonymous": false,
      "inputs": [
        {
          "indexed": false,
          "internalType": "address",
          "name": "validator",
          "type": "address"
        },
        {
          "indexed": false,
          "internalType": "uint256",
          "name": "updateIndex",
          "type": "uint256"
        }
      ],
      "name": "UpdateValidated",
      "type": "event"
    },
    {
      "inputs": [],
      "name": "MINIMUM_TRUST_SCORE",
      "outputs": [
        {
          "internalType": "uint256",
          "name": "",
          "type": "uint256"
        }
      ],
      "stateMutability": "view",
      "type": "function",
      "constant": true
    },
    {
      "inputs": [],
      "name": "currentRound",
      "outputs": [
        {
          "internalType": "uint256",
          "name": "",
          "type": "uint256"
        }
      ],
      "stateMutability": "view",
      "type": "function",
      "constant": true
    },
    {
      "inputs": [
        {
          "internalType": "uint256",
          "name": "",
          "type": "uint256"
        }
      ],
      "name": "modelUpdates",
      "outputs": [
        {
          "internalType": "address",
          "name": "submitter",
          "type": "address"
        },
        {
          "internalType": "string",
          "name": "ipfsHash",
          "type": "string"
        },
        {
          "internalType": "uint256",
          "name": "timestamp",
          "type": "uint256"
        },
        {
          "internalType": "bool",
          "name": "isValidated",
          "type": "bool"
        },
        {
          "internalType": "uint256",
          "name": "round",
          "type": "uint256"
        }
      ],
      "stateMutability": "view",
      "type": "function",
      "constant": true
    },
    {
      "inputs": [
        {
          "internalType": "address",
          "name": "",
          "type": "address"
        }
      ],
      "name": "validatorTrustScores",
      "outputs": [
        {
          "internalType": "uint256",
          "name": "",
          "type": "uint256"
        }
      ],
      "stateMutability": "view",
      "type": "function",
      "constant": true
    },
    {
      "inputs": [
        {
          "internalType": "string",
          "name": "_ipfsHash",
          "type": "string"
        }
      ],
      "name": "submitUpdate",
      "outputs": [],
      "stateMutability": "nonpayable",
      "type": "function"
    },
    {
      "inputs": [
        {
          "internalType": "uint256",
          "name": "_updateIndex",
          "type": "uint256"
        }
      ],
      "name": "validateUpdate",
      "outputs": [],
      "stateMutability": "nonpayable",
      "type": "function"
    },
    {
      "inputs": [],
      "name": "completeRound",
      "outputs": [],
      "stateMutability": "nonpayable",
      "type": "function"
    },
    {
      "inputs": [
        {
          "internalType": "address",
          "name": "_validator",
          "type": "address"
        }
      ],
      "name": "getTrustScore",
      "outputs": [
        {
          "internalType": "uint256",
          "name": "",
          "type": "uint256"
        }
      ],
      "stateMutability": "view",
      "type": "function",
      "constant": true
    }
  ],
  "bytecode": "0x608060405234801561000f575f80fd5b50610f4f8061001d5f395ff3fe608060405234801561000f575f80fd5b5060043610610086575f3560e01c80638be48547116100595780638be4854714610112578063d67aa9841461011c578063f08e92f51461014c578063fad8701d1461016857610086565b80631e1b890b1461008a5780635e09eea1146100a6578063756fea59146100d65780638a19c8bc146100f4575b5f80fd5b6100a4600480360381019061009f91906106be565b61019c565b005b6100c060048036038101906100bb9190610743565b61039a565b6040516100cd919061077d565b60405180910390f35b6100de6103e0565b6040516100eb919061077d565b60405180910390f35b6100fc6103e5565b604051610109919061077d565b60405180910390f35b61011a6103eb565b005b61013660048036038101906101319190610743565b61043d565b604051610143919061077d565b60405180910390f35b610166600480360381019061016191906108d2565b610452565b005b610182600480360381019061017d91906106be565b610589565b6040516101939594939291906109bc565b60405180910390f35b5f8054905081106101e2576040517f08c379a00000000000000000000000000000000000000000000000000000000081526004016101d990610a5e565b60405180910390fd5b5f81815481106101f5576101f4610a7c565b5b905f5260205f2090600502016003015f9054906101000a900460ff1615610251576040517f08c379a000000000000000000000000000000000000000000000000000000000815260040161024890610af3565b60405180910390fd5b600560015f3373ffffffffffffffffffffffffffffffffffffffff1673ffffffffffffffffffffffffffffffffffffffff1681526020019081526020015f205410156102d2576040517f08c379a00000000000000000000000000000000000000000000000000000000081526004016102c990610b5b565b60405180910390fd5b60015f82815481106102e7576102e6610a7c565b5b905f5260205f2090600502016003015f6101000a81548160ff02191690831515021790555060015f3373ffffffffffffffffffffffffffffffffffffffff1673ffffffffffffffffffffffffffffffffffffffff1681526020019081526020015f205f81548092919061035990610ba6565b91905055507f464eda14c1c84cc8cbace9a3ccdf7a7537a79ce820965c15ffd4dcf7397e2137338260405161038f929190610bed565b60405180910390a150565b5f60015f8373ffffffffffffffffffffffffffffffffffffffff1673ffffffffffffffffffffffffffffffffffffffff1681526020019081526020015f20549050919050565b600581565b60025481565b60025f8154809291906103fd90610ba6565b91905055507f0de73690a4c6b6fe902021c5ae286d7c66033d85adcc569a99a208e64864c2e7600254604051610433919061077d565b60405180910390a1565b6001602052805f5260405f205f915090505481565b5f6040518060a001604052803373ffffffffffffffffffffffffffffffffffffffff1681526020018381526020014281526020015f15158152602001600254815250908060018154018082558091505060019003905f5260205f2090600502015f909190919091505f820151815f015f6101000a81548173ffffffffffffffffffffffffffffffffffffffff021916908373ffffffffffffffffffffffffffffffffffffffff16021790555060208201518160010190816105139190610e0e565b50604082015181600201556060820151816003015f6101000a81548160ff0219169083151502179055506080820151816004015550507fcf19cabe7e2dde57ae7b9ad3483f89bf361ab82d5b866412edac124feb323191338260025460405161057e93929190610edd565b60405180910390a150565b5f8181548110610597575f80fd5b905f5260205f2090600502015f91509050805f015f9054906101000a900473ffffffffffffffffffffffffffffffffffffffff16908060010180546105db90610c41565b80601f016020809104026020016040519081016040528092919081815260200182805461060790610c41565b80156106525780601f1061062957610100808354040283529160200191610652565b820191905f5260205f20905b81548152906001019060200180831161063557829003601f168201915b505050505090806002015490806003015f9054906101000a900460ff16908060040154905085565b5f604051905090565b5f80fd5b5f80fd5b5f819050919050565b61069d8161068b565b81146106a7575f80fd5b50565b5f813590506106b881610694565b92915050565b5f602082840312156106d3576106d2610683565b5b5f6106e0848285016106aa565b91505092915050565b5f73ffffffffffffffffffffffffffffffffffffffff82169050919050565b5f610712826106e9565b9050919050565b61072281610708565b811461072c575f80fd5b50565b5f8135905061073d81610719565b92915050565b5f6020828403121561075857610757610683565b5b5f6107658482850161072f565b91505092915050565b6107778161068b565b82525050565b5f6020820190506107905f83018461076e565b92915050565b5f80fd5b5f80fd5b5f601f19601f8301169050919050565b7f4e487b71000000000000000000000000000000000000000000000000000000005f52604160045260245ffd5b6107e48261079e565b810181811067ffffffffffffffff82111715610803576108026107ae565b5b80604052505050565b5f61081561067a565b905061082182826107db565b919050565b5f67ffffffffffffffff8211156108405761083f6107ae565b5b6108498261079e565b9050602081019050919050565b828183375f83830152505050565b5f61087661087184610826565b61080c565b9050828152602081018484840111156108925761089161079a565b5b61089d848285610856565b509392505050565b5f82601f8301126108b9576108b8610796565b5b81356108c9848260208601610864565b91505092915050565b5f602082840312156108e7576108e6610683565b5b5f82013567ffffffffffffffff81111561090457610903610687565b5b610910848285016108a5565b91505092915050565b61092281610708565b82525050565b5f81519050919050565b5f82825260208201905092915050565b5f5b8381101561095f578082015181840152602081019050610944565b5f8484015250505050565b5f61097482610928565b61097e8185610932565b935061098e818560208601610942565b6109978161079e565b840191505092915050565b5f8115159050919050565b6109b6816109a2565b82525050565b5f60a0820190506109cf5f830188610919565b81810360208301526109e1818761096a565b90506109f0604083018661076e565b6109fd60608301856109ad565b610a0a608083018461076e565b9695505050505050565b7f496e76616c69642075706461746520696e6465780000000000000000000000005f82015250565b5f610a48601483610932565b9150610a5382610a14565b602082019050919050565b5f6020820190508181035f830152610a7581610a3c565b9050919050565b7f4e487b71000000000000000000000000000000000000000000000000000000005f52603260045260245ffd5b7f55706461746520616c72656164792076616c69646174656400000000000000005f82015250565b5f610add601883610932565b9150610ae882610aa9565b602082019050919050565b5f6020820190508181035f830152610b0a81610ad1565b9050919050565b7f496e73756666696369656e742074727573742073636f726500000000000000005f82015250565b5f610b45601883610932565b9150610b5082610b11565b602082019050919050565b5f6020820190508181035f830152610b7281610b39565b9050919050565b7f4e487b71000000000000000000000000000000000000000000000000000000005f52601160045260245ffd5b5f610bb08261068b565b91507fffffffffffffffffffffffffffffffffffffffffffffffffffffffffffffffff8203610be257610be1610b79565b5b600182019050919050565b5f604082019050610c005f830185610919565b610c0d602083018461076e565b9392505050565b7f4e487b71000000000000000000000000000000000000000000000000000000005f52602260045260245ffd5b5f6002820490506001821680610c5857607f821691505b602082108103610c6b57610c6a610c14565b5b50919050565b5f819050815f5260205f209050919050565b5f6020601f8301049050919050565b5f82821b905092915050565b5f60088302610ccd7fffffffffffffffffffffffffffffffffffffffffffffffffffffffffffffffff82610c92565b610cd78683610c92565b95508019841693508086168417925050509392505050565b5f819050919050565b5f610d12610d0d610d088461068b565b610cef565b61068b565b9050919050565b5f819050919050565b610d2b83610cf8565b610d3f610d3782610d19565b848454610c9e565b825550505050565b5f90565b610d53610d47565b610d5e818484610d22565b505050565b5b81811015610d8157610d765f82610d4b565b600181019050610d64565b5050565b601f821115610dc657610d9781610c71565b610da084610c83565b81016020851015610daf578190505b610dc3610dbb85610c83565b830182610d63565b50505b505050565b5f82821c905092915050565b5f610de65f1984600802610dcb565b1980831691505092915050565b5f610dfe8383610dd7565b9150826002028217905092915050565b610e1782610928565b67ffffffffffffffff811115610e3057610e2f6107ae565b5b610e3a8254610c41565b610e45828285610d85565b5f60209050601f831160018114610e76575f8415610e64578287015190505b610e6e8582610df3565b865550610ed5565b601f198416610e8486610c71565b5f5b82811015610eab57848901518255600182019150602085019450602081019050610e86565b86831015610ec85784890151610ec4601f891682610dd7565b8355505b6001600288020188555050505b505050505050565b5f606082019050610ef05f830186610919565b8181036020830152610f02818561096a565b9050610f11604083018461076e565b94935050505056fea2646970667358221220efd9bc989e2fc90b53a9badfbb816970fd2177475eaafc926c8f455cc9532a2464736f6c63430008150033",
  "immutableReferences": {},
  "source": "// SPDX-License-Identifier: MIT\r\npragma solidity ^0.8.0;\r\n\r\ncontract FederatedLearning2 {\r\n    struct ModelUpdate {\r\n        address submitter;\r\n        string ipfsHash;\r\n        uint256 timestamp;\r\n        bool isValidated;\r\n        uint256 round;\r\n    }\r\n\r\n    ModelUpdate[] public modelUpdates;\r\n    mapping(address => uint256) public validatorTrustScores;\r\n    uint256 public currentRound;\r\n    uint256 public constant MINIMUM_TRUST_SCORE = 5;\r\n\r\n    event UpdateSubmitted(address submitter, string ipfsHash, uint256 round);\r\n    event UpdateValidated(address validator, uint256 updateIndex);\r\n    event RoundCompleted(uint256 round);\r\n\r\n    function submitUpdate(string memory _ipfsHash) public {\r\n        modelUpdates.push(ModelUpdate({\r\n            submitter: msg.sender,\r\n            ipfsHash: _ipfsHash,\r\n            timestamp: block.timestamp,\r\n            isValidated: false,\r\n            round: currentRound\r\n        }));\r\n        emit UpdateSubmitted(msg.sender, _ipfsHash, currentRound);\r\n    }\r\n\r\n    function validateUpdate(uint256 _updateIndex) public {\r\n        require(_updateIndex < modelUpdates.length, \"Invalid update index\");\r\n        require(!modelUpdates[_updateIndex].isValidated, \"Update already validated\");\r\n        require(validatorTrustScores[msg.sender] >= MINIMUM_TRUST_SCORE, \"Insufficient trust score\");\r\n        \r\n        modelUpdates[_updateIndex].isValidated = true;\r\n        validatorTrustScores[msg.sender]++;\r\n        \r\n        emit UpdateValidated(msg.sender, _updateIndex);\r\n    }\r\n\r\n    function completeRound() public {\r\n        // In a real implementation, this would be called by a designated aggregator\r\n        // after performing the federated averaging of validated updates\r\n        currentRound++;\r\n        emit RoundCompleted(currentRound);\r\n    }\r\n\r\n    function getTrustScore(address _validator) public view returns (uint256) {\r\n        return validatorTrustScores[_validator];\r\n    }\r\n}\r\n",
  "sourcePath": "/home/raven/code/Blockchain/blockchain-project/contracts/Smart Contract Implementation.sol",
  "compiler": {
    "name": "solc",
    "version": "0.8.21+commit.d9974bed.Emscripten.clang"
  },
  "schemaVersion": "3.4.16",
  "updatedAt": "2024-10-09T00:12:00.604Z",
  "networkType": "ethereum",
  "devdoc": {
    "kind": "dev",
    "methods": {},
    "version": 1
  },
  "userdoc": {
    "kind": "user",
    "methods": {},
    "version": 1
  }
}